{
  "transactions": [
    {
      "hash": "0x4cfa87c0ff80203bb5d06f847703ddf114af944383feedbfc2b59ad0dd9314e0",
      "transactionType": "CALL",
      "contractName": "EntryPoint",
      "contractAddress": "0x0000000071727de22e5e9d8baf0edac6f37da032",
      "function": "handleOps((address,uint256,bytes,bytes,bytes32,uint256,bytes32,bytes,bytes)[],address)",
      "arguments": [
        "[(0x5B17b78e34954A760D293655bAF440C817080C3E, 0, 0x, 0xb61d27f6000000000000000000000000af88d065e77c8cc2239327c5edb3a432268e5831000000000000000000000000000000000000000000000000000000000000000000000000000000000000000000000000000000000000000000000000000000600000000000000000000000000000000000000000000000000000000000000044095ea7b30000000000000000000000007e7ccf58d0670390b039d94ce2c3cd54beae09be0000000000000000000000000000000000000000000000000de0b6b3a764000000000000000000000000000000000000000000000000000000000000, 0x0000000000000000000000000100000000000000000000000000000001000000, 16777216, 0x0000000000000000000000000000010000000000000000000000000000000100, 0x, 0xa621d48cff13120b5383bf2db45a169e1df6f3a9ce334189e1030564f672f07d4820311dd42a4e4baf7a68ceec65a8efae7da0fa62a339a688640e1c689a870d1c)]",
        "0x667c1aBD4E25BE048b8217F90Fc576780CCa8218"
      ],
      "transaction": {
        "from": "0x667c1abd4e25be048b8217f90fc576780cca8218",
        "to": "0x0000000071727de22e5e9d8baf0edac6f37da032",
        "gas": "0x15cc523",
        "value": "0x0",
        "input": "0x765e827f0000000000000000000000000000000000000000000000000000000000000040000000000000000000000000667c1abd4e25be048b8217f90fc576780cca8218000000000000000000000000000000000000000000000000000000000000000100000000000000000000000000000000000000000000000000000000000000200000000000000000000000005b17b78e34954a760d293655baf440c817080c3e00000000000000000000000000000000000000000000000000000000000000000000000000000000000000000000000000000000000000000000000000000120000000000000000000000000000000000000000000000000000000000000014000000000000000000000000001000000000000000000000000000000010000000000000000000000000000000000000000000000000000000000000001000000000000000000000000000000000001000000000000000000000000000000010000000000000000000000000000000000000000000000000000000000000002600000000000000000000000000000000000000000000000000000000000000280000000000000000000000000000000000000000000000000000000000000000000000000000000000000000000000000000000000000000000000000000000e4b61d27f6000000000000000000000000af88d065e77c8cc2239327c5edb3a432268e5831000000000000000000000000000000000000000000000000000000000000000000000000000000000000000000000000000000000000000000000000000000600000000000000000000000000000000000000000000000000000000000000044095ea7b30000000000000000000000007e7ccf58d0670390b039d94ce2c3cd54beae09be0000000000000000000000000000000000000000000000000de0b6b3a7640000000000000000000000000000000000000000000000000000000000000000000000000000000000000000000000000000000000000000000000000000000000000000000000000000000000000000000000000000000000000000000000000000000000000000000000000000000000000000000000000041a621d48cff13120b5383bf2db45a169e1df6f3a9ce334189e1030564f672f07d4820311dd42a4e4baf7a68ceec65a8efae7da0fa62a339a688640e1c689a870d1c00000000000000000000000000000000000000000000000000000000000000",
        "nonce": "0x15",
        "chainId": "0xa4b1"
      },
      "additionalContracts": [],
      "isFixedGasLimit": false
    }
  ],
  "receipts": [
    {
      "status": "0x1",
      "cumulativeGasUsed": "0x85924",
      "logs": [
        {
          "address": "0x0000000071727de22e5e9d8baf0edac6f37da032",
          "topics": [
            "0x2da466a7b24304f47e87fa2e1e5a81b9831ce54fec19055ce277ca2f39ba42c4",
            "0x0000000000000000000000005b17b78e34954a760d293655baf440c817080c3e"
          ],
          "data": "0x0000000000000000000000000000000000000000000000000000000300000000",
          "blockHash": "0x26ab328854750ef6488db9d9456bc0bb1ed92693810829ff366f72637c823a9d",
          "blockNumber": "0x164faa62",
          "transactionHash": "0x4cfa87c0ff80203bb5d06f847703ddf114af944383feedbfc2b59ad0dd9314e0",
          "transactionIndex": "0x3",
          "logIndex": "0x10",
          "removed": false
        },
        {
          "address": "0x0000000071727de22e5e9d8baf0edac6f37da032",
          "topics": [
            "0xbb47ee3e183a558b1a2ff0874b079f3fc5478b7454eacf2bfc5af2ff5878f972"
          ],
          "data": "0x",
          "blockHash": "0x26ab328854750ef6488db9d9456bc0bb1ed92693810829ff366f72637c823a9d",
          "blockNumber": "0x164faa62",
          "transactionHash": "0x4cfa87c0ff80203bb5d06f847703ddf114af944383feedbfc2b59ad0dd9314e0",
          "transactionIndex": "0x3",
          "logIndex": "0x11",
          "removed": false
        },
        {
          "address": "0xaf88d065e77c8cc2239327c5edb3a432268e5831",
          "topics": [
            "0x8c5be1e5ebec7d5bd14f71427d1e84f3dd0314c0f7b2291e5b200ac8c7c3b925",
            "0x0000000000000000000000005b17b78e34954a760d293655baf440c817080c3e",
            "0x0000000000000000000000007e7ccf58d0670390b039d94ce2c3cd54beae09be"
          ],
          "data": "0x0000000000000000000000000000000000000000000000000de0b6b3a7640000",
          "blockHash": "0x26ab328854750ef6488db9d9456bc0bb1ed92693810829ff366f72637c823a9d",
          "blockNumber": "0x164faa62",
          "transactionHash": "0x4cfa87c0ff80203bb5d06f847703ddf114af944383feedbfc2b59ad0dd9314e0",
          "transactionIndex": "0x3",
          "logIndex": "0x12",
          "removed": false
        },
        {
          "address": "0x0000000071727de22e5e9d8baf0edac6f37da032",
          "topics": [
            "0x49628fd1471006c1482da88028e9ce4dbb080b815c9b0344d39e5a8e6ec1419f",
            "0x7072a41433af7a253316fc65b75d28d539335fd55241eb201c30450e0b19efe6",
            "0x0000000000000000000000005b17b78e34954a760d293655baf440c817080c3e",
            "0x0000000000000000000000000000000000000000000000000000000000000000"
          ],
          "data": "0x00000000000000000000000000000000000000000000000000000000000000000000000000000000000000000000000000000000000000000000000000000001000000000000000000000000000000000000000000000000000000011b237f0000000000000000000000000000000000000000000000000000000000011b237f",
          "blockHash": "0x26ab328854750ef6488db9d9456bc0bb1ed92693810829ff366f72637c823a9d",
          "blockNumber": "0x164faa62",
          "transactionHash": "0x4cfa87c0ff80203bb5d06f847703ddf114af944383feedbfc2b59ad0dd9314e0",
          "transactionIndex": "0x3",
          "logIndex": "0x13",
          "removed": false
        }
      ],
      "logsBloom": "0x00000000000000000000000000000000000000000000000000000000000000000008004020000000000001010000000000000001000000000000020000200000000000000000000000000000000000000040000000000000000000000000200000000000020800000000000000000800000000000000000000000000000200000000000000000000000000000000000000000000000000000000000000000000020000000000000000400000000000000008000000004000000002000000000200002000000000400001040000000000200000000000000000000000000020000050000000000000000000000000200000000000000000000000000000000020",
      "type": "0x2",
      "transactionHash": "0x4cfa87c0ff80203bb5d06f847703ddf114af944383feedbfc2b59ad0dd9314e0",
      "transactionIndex": "0x3",
      "blockHash": "0x26ab328854750ef6488db9d9456bc0bb1ed92693810829ff366f72637c823a9d",
      "blockNumber": "0x164faa62",
      "gasUsed": "0x25baf",
      "effectiveGasPrice": "0x989680",
      "from": "0x667c1abd4e25be048b8217f90fc576780cca8218",
      "to": "0x0000000071727de22e5e9d8baf0edac6f37da032",
      "contractAddress": null,
      "gasUsedForL1": "0x1053",
      "l1BlockNumber": "0x162f7fe",
      "timeboosted": false
    }
  ],
  "libraries": [],
  "pending": [],
  "returns": {},
  "timestamp": 1756668717676,
  "chain": 42161,
  "commit": "aad29c1"
}