{
  "transactions": [
    {
      "hash": "0xbc20c7fc8a5dc9d1b51f8c790513cc14926745334ef848c7708b9ec752dbc088",
      "transactionType": "CALL",
      "contractName": "HelperConfig",
      "contractAddress": "0x5aadfb43ef8daf45dd80f4676345b7676f1d70e3",
      "function": "getConfig()",
      "arguments": [],
      "transaction": {
        "from": "0x667c1abd4e25be048b8217f90fc576780cca8218",
        "to": "0x5aadfb43ef8daf45dd80f4676345b7676f1d70e3",
        "gas": "0x7052",
        "value": "0x0",
        "input": "0xc3f909d4",
        "nonce": "0x8",
        "chainId": "0xa4b1"
      },
      "additionalContracts": [],
      "isFixedGasLimit": false
    },
    {
      "hash": "0x5f1cb55fe2ad1aea26220a550db1f96f04336a110fe49c09f4217dbcc20a9382",
      "transactionType": "CALL",
      "contractName": "HelperConfig",
      "contractAddress": "0x5aadfb43ef8daf45dd80f4676345b7676f1d70e3",
      "function": "getConfig()",
      "arguments": [],
      "transaction": {
        "from": "0x667c1abd4e25be048b8217f90fc576780cca8218",
        "to": "0x5aadfb43ef8daf45dd80f4676345b7676f1d70e3",
        "gas": "0x7052",
        "value": "0x0",
        "input": "0xc3f909d4",
        "nonce": "0x9",
        "chainId": "0xa4b1"
      },
      "additionalContracts": [],
      "isFixedGasLimit": false
    },
    {
      "hash": null,
      "transactionType": "CALL",
      "contractName": "EntryPoint",
      "contractAddress": "0x0000000071727de22e5e9d8baf0edac6f37da032",
      "function": "handleOps((address,uint256,bytes,bytes,bytes32,uint256,bytes32,bytes,bytes)[],address)",
      "arguments": [
        "[(0x7659FbB37c561C9CeD0B5a24acA8fF37Df1D4246, 0, 0x, 0xb61d27f6000000000000000000000000af88d065e77c8cc2239327c5edb3a432268e5831000000000000000000000000000000000000000000000000000000000000000000000000000000000000000000000000000000000000000000000000000000600000000000000000000000000000000000000000000000000000000000000044095ea7b30000000000000000000000007e7ccf58d0670390b039d94ce2c3cd54beae09be0000000000000000000000000000000000000000000000000de0b6b3a764000000000000000000000000000000000000000000000000000000000000, 0x0000000000000000000000000100000000000000000000000000000001000000, 16777216, 0x0000000000000000000000000000010000000000000000000000000000000100, 0x, 0x5b6ec1aef8dfc76317e5e69e61ce02e6b242eede66f8148f3732128e99a25b86182910fbb6bb261889afd2abb95c2ca27d45d8ce814fc196f5e8324a0f3665c51c)]",
        "0x667c1aBD4E25BE048b8217F90Fc576780CCa8218"
      ],
      "transaction": {
        "from": "0x667c1abd4e25be048b8217f90fc576780cca8218",
        "to": "0x0000000071727de22e5e9d8baf0edac6f37da032",
        "gas": "0x15a2c6a",
        "value": "0x0",
        "input": "0x765e827f0000000000000000000000000000000000000000000000000000000000000040000000000000000000000000667c1abd4e25be048b8217f90fc576780cca8218000000000000000000000000000000000000000000000000000000000000000100000000000000000000000000000000000000000000000000000000000000200000000000000000000000007659fbb37c561c9ced0b5a24aca8ff37df1d424600000000000000000000000000000000000000000000000000000000000000000000000000000000000000000000000000000000000000000000000000000120000000000000000000000000000000000000000000000000000000000000014000000000000000000000000001000000000000000000000000000000010000000000000000000000000000000000000000000000000000000000000001000000000000000000000000000000000001000000000000000000000000000000010000000000000000000000000000000000000000000000000000000000000002600000000000000000000000000000000000000000000000000000000000000280000000000000000000000000000000000000000000000000000000000000000000000000000000000000000000000000000000000000000000000000000000e4b61d27f6000000000000000000000000af88d065e77c8cc2239327c5edb3a432268e5831000000000000000000000000000000000000000000000000000000000000000000000000000000000000000000000000000000000000000000000000000000600000000000000000000000000000000000000000000000000000000000000044095ea7b30000000000000000000000007e7ccf58d0670390b039d94ce2c3cd54beae09be0000000000000000000000000000000000000000000000000de0b6b3a76400000000000000000000000000000000000000000000000000000000000000000000000000000000000000000000000000000000000000000000000000000000000000000000000000000000000000000000000000000000000000000000000000000000000000000000000000000000000000000000000000415b6ec1aef8dfc76317e5e69e61ce02e6b242eede66f8148f3732128e99a25b86182910fbb6bb261889afd2abb95c2ca27d45d8ce814fc196f5e8324a0f3665c51c00000000000000000000000000000000000000000000000000000000000000",
        "nonce": "0xa",
        "chainId": "0xa4b1"
      },
      "additionalContracts": [],
      "isFixedGasLimit": false
    }
  ],
  "receipts": [
    {
      "status": "0x1",
      "cumulativeGasUsed": "0xb13a4",
      "logs": [],
      "logsBloom": "0x00000000000000000000000000000000000000000000000000000000000000000000000000000000000000000000000000000000000000000000000000000000000000000000000000000000000000000000000000000000000000000000000000000000000000000000000000000000000000000000000000000000000000000000000000000000000000000000000000000000000000000000000000000000000000000000000000000000000000000000000000000000000000000000000000000000000000000000000000000000000000000000000000000000000000000000000000000000000000000000000000000000000000000000000000000000",
      "type": "0x2",
      "transactionHash": "0xbc20c7fc8a5dc9d1b51f8c790513cc14926745334ef848c7708b9ec752dbc088",
      "transactionIndex": "0x4",
      "blockHash": "0xe7d0f524ccbc82e52c21ff812d543857425a78bf8b82e427a9a18931f96ca90c",
      "blockNumber": "0x164a1f7b",
      "gasUsed": "0x54e3",
      "effectiveGasPrice": "0x989680",
      "from": "0x667c1abd4e25be048b8217f90fc576780cca8218",
      "to": "0x5aadfb43ef8daf45dd80f4676345b7676f1d70e3",
      "contractAddress": null,
      "gasUsedForL1": "0x29b",
      "l1BlockNumber": "0x162da95",
      "timeboosted": false
    },
    {
      "status": "0x1",
      "cumulativeGasUsed": "0x20462",
      "logs": [],
      "logsBloom": "0x00000000000000000000000000000000000000000000000000000000000000000000000000000000000000000000000000000000000000000000000000000000000000000000000000000000000000000000000000000000000000000000000000000000000000000000000000000000000000000000000000000000000000000000000000000000000000000000000000000000000000000000000000000000000000000000000000000000000000000000000000000000000000000000000000000000000000000000000000000000000000000000000000000000000000000000000000000000000000000000000000000000000000000000000000000000",
      "type": "0x2",
      "transactionHash": "0x5f1cb55fe2ad1aea26220a550db1f96f04336a110fe49c09f4217dbcc20a9382",
      "transactionIndex": "0x3",
      "blockHash": "0x779aa28d7798d7d79484c7a47101df5edb4de47e50ff2f9d6a4903673af3b775",
      "blockNumber": "0x164a1f7f",
      "gasUsed": "0x54e3",
      "effectiveGasPrice": "0x989680",
      "from": "0x667c1abd4e25be048b8217f90fc576780cca8218",
      "to": "0x5aadfb43ef8daf45dd80f4676345b7676f1d70e3",
      "contractAddress": null,
      "gasUsedForL1": "0x29b",
      "l1BlockNumber": "0x162da95",
      "timeboosted": false
    }
  ],
  "libraries": [],
  "pending": [],
  "returns": {},
  "timestamp": 1756577973385,
  "chain": 42161,
  "commit": null
}